{
  "_format": "hh-sol-artifact-1",
  "contractName": "NeuroVaultRegistry",
  "sourceName": "contracts/NeuroVaultRegistry.sol",
  "abi": [
    {
      "inputs": [],
      "stateMutability": "nonpayable",
      "type": "constructor"
    },
    {
      "inputs": [
        {
          "internalType": "address",
          "name": "owner",
          "type": "address"
        }
      ],
      "name": "OwnableInvalidOwner",
      "type": "error"
    },
    {
      "inputs": [
        {
          "internalType": "address",
          "name": "account",
          "type": "address"
        }
      ],
      "name": "OwnableUnauthorizedAccount",
      "type": "error"
    },
    {
      "inputs": [],
      "name": "ReentrancyGuardReentrantCall",
      "type": "error"
    },
    {
      "anonymous": false,
      "inputs": [
        {
          "indexed": true,
          "internalType": "uint256",
          "name": "datasetId",
          "type": "uint256"
        },
        {
          "indexed": true,
          "internalType": "address",
          "name": "licensee",
          "type": "address"
        },
        {
          "indexed": false,
          "internalType": "uint256",
          "name": "expiresAt",
          "type": "uint256"
        }
      ],
      "name": "AccessGranted",
      "type": "event"
    },
    {
      "anonymous": false,
      "inputs": [
        {
          "indexed": true,
          "internalType": "uint256",
          "name": "id",
          "type": "uint256"
        },
        {
          "indexed": true,
          "internalType": "address",
          "name": "contributor",
          "type": "address"
        },
        {
          "indexed": false,
          "internalType": "string",
          "name": "dataCID",
          "type": "string"
        },
        {
          "indexed": false,
          "internalType": "string",
          "name": "metadataCID",
          "type": "string"
        },
        {
          "indexed": false,
          "internalType": "uint256",
          "name": "price",
          "type": "uint256"
        }
      ],
      "name": "DatasetRegistered",
      "type": "event"
    },
    {
      "anonymous": false,
      "inputs": [
        {
          "indexed": true,
          "internalType": "address",
          "name": "previousOwner",
          "type": "address"
        },
        {
          "indexed": true,
          "internalType": "address",
          "name": "newOwner",
          "type": "address"
        }
      ],
      "name": "OwnershipTransferred",
      "type": "event"
    },
    {
      "anonymous": false,
      "inputs": [
        {
          "indexed": true,
          "internalType": "uint256",
          "name": "datasetId",
          "type": "uint256"
        },
        {
          "indexed": true,
          "internalType": "address",
          "name": "contributor",
          "type": "address"
        },
        {
          "indexed": false,
          "internalType": "uint256",
          "name": "amount",
          "type": "uint256"
        }
      ],
      "name": "PaymentDistributed",
      "type": "event"
    },
    {
      "inputs": [],
      "name": "LICENSE_DURATION",
      "outputs": [
        {
          "internalType": "uint256",
          "name": "",
          "type": "uint256"
        }
      ],
      "stateMutability": "view",
      "type": "function"
    },
    {
      "inputs": [
        {
          "internalType": "address",
          "name": "user",
          "type": "address"
        },
        {
          "internalType": "uint256",
          "name": "datasetId",
          "type": "uint256"
        }
      ],
      "name": "checkAccess",
      "outputs": [
        {
          "internalType": "bool",
          "name": "",
          "type": "bool"
        }
      ],
      "stateMutability": "view",
      "type": "function"
    },
    {
      "inputs": [
        {
          "internalType": "address",
          "name": "",
          "type": "address"
        }
      ],
      "name": "contributorEarnings",
      "outputs": [
        {
          "internalType": "uint256",
          "name": "",
          "type": "uint256"
        }
      ],
      "stateMutability": "view",
      "type": "function"
    },
    {
      "inputs": [
        {
          "internalType": "uint256",
          "name": "",
          "type": "uint256"
        }
      ],
      "name": "datasets",
      "outputs": [
        {
          "internalType": "uint256",
          "name": "id",
          "type": "uint256"
        },
        {
          "internalType": "address",
          "name": "contributor",
          "type": "address"
        },
        {
          "internalType": "string",
          "name": "dataCID",
          "type": "string"
        },
        {
          "internalType": "string",
          "name": "metadataCID",
          "type": "string"
        },
        {
          "internalType": "uint256",
          "name": "price",
          "type": "uint256"
        },
        {
          "internalType": "uint256",
          "name": "registeredAt",
          "type": "uint256"
        },
        {
          "internalType": "bool",
          "name": "active",
          "type": "bool"
        }
      ],
      "stateMutability": "view",
      "type": "function"
    },
    {
      "inputs": [
        {
          "internalType": "address",
          "name": "contributor",
          "type": "address"
        }
      ],
      "name": "getContributorDatasets",
      "outputs": [
        {
          "internalType": "uint256[]",
          "name": "",
          "type": "uint256[]"
        }
      ],
      "stateMutability": "view",
      "type": "function"
    },
    {
      "inputs": [
        {
          "internalType": "address",
          "name": "contributor",
          "type": "address"
        }
      ],
      "name": "getContributorEarnings",
      "outputs": [
        {
          "internalType": "uint256",
          "name": "",
          "type": "uint256"
        }
      ],
      "stateMutability": "view",
      "type": "function"
    },
    {
      "inputs": [
        {
          "internalType": "uint256",
          "name": "datasetId",
          "type": "uint256"
        }
      ],
      "name": "getDataset",
      "outputs": [
        {
          "components": [
            {
              "internalType": "uint256",
              "name": "id",
              "type": "uint256"
            },
            {
              "internalType": "address",
              "name": "contributor",
              "type": "address"
            },
            {
              "internalType": "string",
              "name": "dataCID",
              "type": "string"
            },
            {
              "internalType": "string",
              "name": "metadataCID",
              "type": "string"
            },
            {
              "internalType": "uint256",
              "name": "price",
              "type": "uint256"
            },
            {
              "internalType": "uint256",
              "name": "registeredAt",
              "type": "uint256"
            },
            {
              "internalType": "bool",
              "name": "active",
              "type": "bool"
            }
          ],
          "internalType": "struct NeuroVaultRegistry.Dataset",
          "name": "",
          "type": "tuple"
        }
      ],
      "stateMutability": "view",
      "type": "function"
    },
    {
      "inputs": [
        {
          "internalType": "address",
          "name": "",
          "type": "address"
        },
        {
          "internalType": "uint256",
          "name": "",
          "type": "uint256"
        }
      ],
      "name": "licenses",
      "outputs": [
        {
          "internalType": "address",
          "name": "licensee",
          "type": "address"
        },
        {
          "internalType": "uint256",
          "name": "datasetId",
          "type": "uint256"
        },
        {
          "internalType": "uint256",
          "name": "purchasedAt",
          "type": "uint256"
        },
        {
          "internalType": "uint256",
          "name": "expiresAt",
          "type": "uint256"
        }
      ],
      "stateMutability": "view",
      "type": "function"
    },
    {
      "inputs": [],
      "name": "listDatasets",
      "outputs": [
        {
          "components": [
            {
              "internalType": "uint256",
              "name": "id",
              "type": "uint256"
            },
            {
              "internalType": "address",
              "name": "contributor",
              "type": "address"
            },
            {
              "internalType": "string",
              "name": "dataCID",
              "type": "string"
            },
            {
              "internalType": "string",
              "name": "metadataCID",
              "type": "string"
            },
            {
              "internalType": "uint256",
              "name": "price",
              "type": "uint256"
            },
            {
              "internalType": "uint256",
              "name": "registeredAt",
              "type": "uint256"
            },
            {
              "internalType": "bool",
              "name": "active",
              "type": "bool"
            }
          ],
          "internalType": "struct NeuroVaultRegistry.Dataset[]",
          "name": "",
          "type": "tuple[]"
        }
      ],
      "stateMutability": "view",
      "type": "function"
    },
    {
      "inputs": [],
      "name": "nextDatasetId",
      "outputs": [
        {
          "internalType": "uint256",
          "name": "",
          "type": "uint256"
        }
      ],
      "stateMutability": "view",
      "type": "function"
    },
    {
      "inputs": [],
      "name": "owner",
      "outputs": [
        {
          "internalType": "address",
          "name": "",
          "type": "address"
        }
      ],
      "stateMutability": "view",
      "type": "function"
    },
    {
      "inputs": [
        {
          "internalType": "uint256",
          "name": "datasetId",
          "type": "uint256"
        }
      ],
      "name": "purchaseAccess",
      "outputs": [],
      "stateMutability": "payable",
      "type": "function"
    },
    {
      "inputs": [
        {
          "internalType": "string",
          "name": "dataCID",
          "type": "string"
        },
        {
          "internalType": "string",
          "name": "metadataCID",
          "type": "string"
        },
        {
          "internalType": "uint256",
          "name": "price",
          "type": "uint256"
        }
      ],
      "name": "registerDataset",
      "outputs": [
        {
          "internalType": "uint256",
          "name": "",
          "type": "uint256"
        }
      ],
      "stateMutability": "nonpayable",
      "type": "function"
    },
    {
      "inputs": [],
      "name": "renounceOwnership",
      "outputs": [],
      "stateMutability": "nonpayable",
      "type": "function"
    },
    {
      "inputs": [
        {
          "internalType": "address",
          "name": "newOwner",
          "type": "address"
        }
      ],
      "name": "transferOwnership",
      "outputs": [],
      "stateMutability": "nonpayable",
      "type": "function"
    }
  ],
  "bytecode": "0x608060405234801561001057600080fd5b50338061003757604051631e4fbdf760e01b81526000600482015260240160405180910390fd5b6100408161006a565b5060017f9b779b17422d0df92223018b32b4d1fa46e071723d6817e2486d003becc55f00556100ba565b600080546001600160a01b038381166001600160a01b0319831681178455604051919092169283917f8be0079c531659141344cd1fd0a4f28419497f9722a3daafe3b4186f6b6457e09190a35050565b61177c806100c96000396000f3fe6080604052600436106100e85760003560e01c8063770f68601161008a578063b91d0a2f11610059578063b91d0a2f1461030a578063c0f04fc71461031d578063ee00422114610334578063f2fde38b1461036157600080fd5b8063770f6860146102585780638da5cb5b146102855780638f6247b4146102ad578063b321e566146102dd57600080fd5b806348c28448116100c657806348c28448146101e95780635295567014610209578063715018a61461021f578063738251541461023657600080fd5b80630be644ee146100ed5780631cff85e11461017257806322c92ef1146101a5575b600080fd5b3480156100f957600080fd5b50610143610108366004611225565b6003602081815260009384526040808520909152918352912080546001820154600283015492909301546001600160a01b0390911692919084565b604080516001600160a01b03909516855260208501939093529183015260608201526080015b60405180910390f35b34801561017e57600080fd5b5061019261018d36600461124f565b610381565b60405161016997969594939291906112ae565b3480156101b157600080fd5b506101db6101c036600461130c565b6001600160a01b031660009081526004602052604090205490565b604051908152602001610169565b3480156101f557600080fd5b506101db610204366004611377565b6104dc565b34801561021557600080fd5b506101db60015481565b34801561022b57600080fd5b50610234610772565b005b34801561024257600080fd5b5061024b610786565b6040516101699190611462565b34801561026457600080fd5b5061027861027336600461130c565b6109bf565b60405161016991906114c6565b34801561029157600080fd5b506000546040516001600160a01b039091168152602001610169565b3480156102b957600080fd5b506102cd6102c8366004611225565b610a2b565b6040519015158152602001610169565b3480156102e957600080fd5b506101db6102f836600461130c565b60046020526000908152604090205481565b61023461031836600461124f565b610ab8565b34801561032957600080fd5b506101db62278d0081565b34801561034057600080fd5b5061035461034f36600461124f565b610f0d565b604051610169919061150a565b34801561036d57600080fd5b5061023461037c36600461130c565b611099565b600260208190526000918252604090912080546001820154928201805491936001600160a01b031692916103b49061151d565b80601f01602080910402602001604051908101604052809291908181526020018280546103e09061151d565b801561042d5780601f106104025761010080835404028352916020019161042d565b820191906000526020600020905b81548152906001019060200180831161041057829003601f168201915b5050505050908060030180546104429061151d565b80601f016020809104026020016040519081016040528092919081815260200182805461046e9061151d565b80156104bb5780601f10610490576101008083540402835291602001916104bb565b820191906000526020600020905b81548152906001019060200180831161049e57829003601f168201915b50505050600483015460058401546006909401549293909290915060ff1687565b6000846105305760405162461bcd60e51b815260206004820152601860248201527f44617461204349442063616e6e6f7420626520656d707479000000000000000060448201526064015b60405180910390fd5b8261057d5760405162461bcd60e51b815260206004820152601c60248201527f4d65746164617461204349442063616e6e6f7420626520656d707479000000006044820152606401610527565b600180546000918261058e83611567565b9190505590506040518060e00160405280828152602001336001600160a01b0316815260200188888080601f016020809104026020016040519081016040528093929190818152602001838380828437600092019190915250505090825250604080516020601f890181900481028201810190925287815291810191908890889081908401838280828437600092018290525093855250505060208083018790524260408085019190915260016060909401849052858352600280835292819020855181559185015193820180546001600160a01b0319166001600160a01b0390951694909417909355918301519082019061068a90826115e7565b506060820151600382019061069f90826115e7565b506080820151600482015560a082015160058083019190915560c0909201516006918201805460ff191691151591909117905533600081815260209384526040808220805460018181018355918452958320909501869055835494850184559290527ff652222313e28459528d920b65115c16c04f3efc82aaedc97be59f3f377c0d3f9092018390555182907f638b0a928579a223f1bceb7d45b0cb298d5cc5ca8d3031c595b1227b4b2f913790610760908b908b908b908b908b906116d0565b60405180910390a39695505050505050565b61077a6110d4565b6107846000611101565b565b60065460609060009067ffffffffffffffff8111156107a7576107a7611580565b6040519080825280602002602001820160405280156107e057816020015b6107cd6111c1565b8152602001906001900390816107c55790505b50905060005b6006548110156109b95760026000600683815481106108075761080761170a565b600091825260208083209091015483528281019390935260409182019020815160e0810183528154815260018201546001600160a01b031693810193909352600281018054919284019161085a9061151d565b80601f01602080910402602001604051908101604052809291908181526020018280546108869061151d565b80156108d35780601f106108a8576101008083540402835291602001916108d3565b820191906000526020600020905b8154815290600101906020018083116108b657829003601f168201915b505050505081526020016003820180546108ec9061151d565b80601f01602080910402602001604051908101604052809291908181526020018280546109189061151d565b80156109655780601f1061093a57610100808354040283529160200191610965565b820191906000526020600020905b81548152906001019060200180831161094857829003601f168201915b5050509183525050600482015460208201526005820154604082015260069091015460ff16151560609091015282518390839081106109a6576109a661170a565b60209081029190910101526001016107e6565b50919050565b6001600160a01b038116600090815260056020908152604091829020805483518184028101840190945280845260609392830182828015610a1f57602002820191906000526020600020905b815481526020019060010190808311610a0b575b50505050509050919050565b6000818152600260205260408120600681015460ff16610a4f576000915050610ab2565b60018101546001600160a01b03808616911603610a70576001915050610ab2565b8060040154600003610a86576001915050610ab2565b50506001600160a01b038216600090815260036020818152604080842085855290915290912001544211155b92915050565b610ac0611151565b6000818152600260205260409020600681015460ff16610b305760405162461bcd60e51b815260206004820152602560248201527f4461746173657420646f6573206e6f74206578697374206f7220697320696e61604482015264637469766560d81b6064820152608401610527565b6001810154336001600160a01b0390911603610b995760405162461bcd60e51b815260206004820152602260248201527f436f6e7472696275746f72732068617665206175746f6d617469632061636365604482015261737360f01b6064820152608401610527565b33600090815260036020818152604080842086855290915290912001544211610c045760405162461bcd60e51b815260206004820152601d60248201527f416374697665206c6963656e736520616c7265616479206578697374730000006044820152606401610527565b8060040154341015610c4f5760405162461bcd60e51b8152602060048201526014602482015273125b9cdd59999a58da595b9d081c185e5b595b9d60621b6044820152606401610527565b6000610c5e62278d0042611720565b604080516080810182523380825260208083018881524284860190815260608501878152600094855260038085528786208c875290945295909320935184546001600160a01b0319166001600160a01b03909116178455516001840155905160028301559151910155600483015490915015610e035760048083015460018401546001600160a01b0316600090815260209290925260408220805491929091610d08908490611720565b9091555050600182015460048301546040516000926001600160a01b031691908381818185875af1925050503d8060008114610d60576040519150601f19603f3d011682016040523d82523d6000602084013e610d65565b606091505b5050905080610db65760405162461bcd60e51b815260206004820152601d60248201527f5061796d656e7420746f20636f6e7472696275746f72206661696c65640000006044820152606401610527565b600183015460048401546040519081526001600160a01b039091169085907f37566df6971769c95a4c085fc4c32ebbe7d4b2aa133fe7fe20895e5789bcff129060200160405180910390a3505b6000826004015434610e159190611733565b90508015610ea757604051600090339083908381818185875af1925050503d8060008114610e5f576040519150601f19603f3d011682016040523d82523d6000602084013e610e64565b606091505b5050905080610ea55760405162461bcd60e51b815260206004820152600d60248201526c1499599d5b990819985a5b1959609a1b6044820152606401610527565b505b604051828152339085907fc56e8aa8e9f4284830fd4657bc77d60640af2ec679f2099faf320ee4202ff4229060200160405180910390a3505050610f0a60017f9b779b17422d0df92223018b32b4d1fa46e071723d6817e2486d003becc55f0055565b50565b610f156111c1565b600082815260026020818152604092839020835160e0810185528154815260018201546001600160a01b03169281019290925291820180549193840191610f5b9061151d565b80601f0160208091040260200160405190810160405280929190818152602001828054610f879061151d565b8015610fd45780601f10610fa957610100808354040283529160200191610fd4565b820191906000526020600020905b815481529060010190602001808311610fb757829003601f168201915b50505050508152602001600382018054610fed9061151d565b80601f01602080910402602001604051908101604052809291908181526020018280546110199061151d565b80156110665780601f1061103b57610100808354040283529160200191611066565b820191906000526020600020905b81548152906001019060200180831161104957829003601f168201915b5050509183525050600482015460208201526005820154604082015260069091015460ff16151560609091015292915050565b6110a16110d4565b6001600160a01b0381166110cb57604051631e4fbdf760e01b815260006004820152602401610527565b610f0a81611101565b6000546001600160a01b031633146107845760405163118cdaa760e01b8152336004820152602401610527565b600080546001600160a01b038381166001600160a01b0319831681178455604051919092169283917f8be0079c531659141344cd1fd0a4f28419497f9722a3daafe3b4186f6b6457e09190a35050565b61115961117f565b60027f9b779b17422d0df92223018b32b4d1fa46e071723d6817e2486d003becc55f0055565b7f9b779b17422d0df92223018b32b4d1fa46e071723d6817e2486d003becc55f005460020361078457604051633ee5aeb560e01b815260040160405180910390fd5b6040518060e001604052806000815260200160006001600160a01b03168152602001606081526020016060815260200160008152602001600081526020016000151581525090565b80356001600160a01b038116811461122057600080fd5b919050565b6000806040838503121561123857600080fd5b61124183611209565b946020939093013593505050565b60006020828403121561126157600080fd5b5035919050565b6000815180845260005b8181101561128e57602081850181015186830182015201611272565b506000602082860101526020601f19601f83011685010191505092915050565b8781526001600160a01b038716602082015260e0604082018190526000906112d890830188611268565b82810360608401526112ea8188611268565b6080840196909652505060a0810192909252151560c090910152949350505050565b60006020828403121561131e57600080fd5b61132782611209565b9392505050565b60008083601f84011261134057600080fd5b50813567ffffffffffffffff81111561135857600080fd5b60208301915083602082850101111561137057600080fd5b9250929050565b60008060008060006060868803121561138f57600080fd5b853567ffffffffffffffff808211156113a757600080fd5b6113b389838a0161132e565b909750955060208801359150808211156113cc57600080fd5b506113d98882890161132e565b96999598509660400135949350505050565b8051825260018060a01b0360208201511660208301526000604082015160e0604085015261141c60e0850182611268565b9050606083015184820360608601526114358282611268565b9150506080830151608085015260a083015160a085015260c0830151151560c08501528091505092915050565b600060208083016020845280855180835260408601915060408160051b87010192506020870160005b828110156114b957603f198886030184526114a78583516113eb565b9450928501929085019060010161148b565b5092979650505050505050565b6020808252825182820181905260009190848201906040850190845b818110156114fe578351835292840192918401916001016114e2565b50909695505050505050565b60208152600061132760208301846113eb565b600181811c9082168061153157607f821691505b6020821081036109b957634e487b7160e01b600052602260045260246000fd5b634e487b7160e01b600052601160045260246000fd5b60006001820161157957611579611551565b5060010190565b634e487b7160e01b600052604160045260246000fd5b601f8211156115e2576000816000526020600020601f850160051c810160208610156115bf5750805b601f850160051c820191505b818110156115de578281556001016115cb565b5050505b505050565b815167ffffffffffffffff81111561160157611601611580565b6116158161160f845461151d565b84611596565b602080601f83116001811461164a57600084156116325750858301515b600019600386901b1c1916600185901b1785556115de565b600085815260208120601f198616915b828110156116795788860151825594840194600190910190840161165a565b50858210156116975787850151600019600388901b60f8161c191681555b5050505050600190811b01905550565b81835281816020850137506000828201602090810191909152601f909101601f19169091010190565b6060815260006116e46060830187896116a7565b82810360208401526116f78186886116a7565b9150508260408301529695505050505050565b634e487b7160e01b600052603260045260246000fd5b80820180821115610ab257610ab2611551565b81810381811115610ab257610ab261155156fea2646970667358221220edb53c31ca8628bc624e22fec4d396a97aa714d2bede4c35944528641857b18164736f6c63430008180033",
  "linkReferences": {},
  "deployedLinkReferences": {}
}